:1006CB0073656E736F724925642073656E7369531E
:1006DB00494D256420636F7069612025640A0051C0
:1006EB0055495441204C4C4156450A004553504501
:1006FB005241204D4F560A00416C61726D61206C66
:10070B00757A0A0058585873656E736F7249256471
:10071B002073656E736953494D256420636F70694F
:10072B00612025640A0A0073656E736F7249256434
:10073B002073656E736953494D256420636F70692F
:10074B00612025640A0A005761726E696E67004D5D
:10075B0061696E2042617474657279204661756CB3
:10076B0074002A2A2A2A2A2A2A2A2A2A2A2A2A2ABE
:10077B002A2A2A2A2A2A2A2A2A2A2A2A2A2A2A2ACE
:10078B002A2A2A2A2A2A2A2A2A2A2A2A2A2A2A2ABE
:10079B002A2A2A2A2A2A2A2A2A2A2A2A2A2A2A0ACE
:1007AB000042415252414355444120535953544501
:1007BB004D530A7777772E6176616E746573692E68
:1007CB00636F6D2C2025732025730A00564552202C
:1007DB00535720636F6368653A20562E312E3400D1
:1007EB0046454348413A2044696369656D627265C9
:1007FB0020323030330025732025732000456E7472
:10080B0072616461204143544956412000456E7426
:10081B0072616461206E6F20616374697661200080
:10082B004C6C617665205055455354410A0A004C77
:10083B006C61766520717569746164610A0A0046A2
:10084B00414C4C412051350A0A0046414C4C412049
:05085B0052370A0A00FB
:100860004200060000C109420008001442000400D2
:1008700000C108C18A410000014100010842000294
:100880000000012900022A0000022C0000022E00B4
:010890000067
:10000E00E49001CAF0A37464F0E4A3F0120462D287
:10001E00A720A70312048D9001CCE0FF04F0D3EFCC
:10002E00648094A8400F12167F7F1E7E0012135A12
:10003E00E49001CCF09001CBE0FF04F0D3EF6480AC
:10004E00948A4009E4F0D284121667C2847F0A7E35
:10005E000012135AD2111208F650BC1213927F01DD
:10006E001216907B057A0679CB900008E0FFA3E08C
:10007E0090011DCFF0A3EFF07831E6FF08E6A3CF95
:10008E00F0A3EFF0900004E0FFA3E0900121CFF089
:10009E00A3EFF01244B7D2B220100302010D20A23A
:1000AE00057830E67004783076017830E6640170B9
:1000BE0011300E0EC20E7604120368E4900010F09A
:1000CE00A3F07830E664047020900010E07002A374
:1000DE00E07016300D091211D65004783076069065
:1000EE000010740DF0A374ACF07830E6FF6401607C
:1000FE0012EF6404600DEF640660087601800478E8
:10010E00307601D2A120A10678347601D2B77834A8
:10011E00E6700B30A10476038004783476017834CF
:10012E00E664017040D2A130A13B7602900022E03D
:10013E00FEA3E0FFC3EE94004009D3EF940CEE94BF
:10014E007B400A900022741BF0A37458F09000229A
:10015E00E0FFA3E0900010CFF0A3EFF07B057A064E
:10016E0079EA1244B77834E664027020900010E009
:10017E007002A3E07016783476037B057A0679F761
:10018E001244B7E4900008F0A3F0C2087834E66495
:10019E0003600302027220101A3008177B057A07DB
:1001AE0079031244B79000107404F0A37476F078BB
:1001BE003476057831E6FE08E6FF64324E704690DE
:1001CE000008E0FCA3E0FDD39402EC648094804030
:1001DE00349000107404F0A37476F07B057A0779DE
:1001EE000F90011DECF0A3EDF0A3EEF0A3EFF09055
:1001FE000004E0FFA3E0900121CFF0A3EFF0124442
:10020E00B7783476057831E6FE08E6FF24FFFBEE7C
:10021E0034FFFA900008E0FCA3E0FDD39BEA648073
:10022E00F8EC648098403DEF4E60399000107404F5
:10023E00F0A37476F07B057A07793290011DECF00D
:10024E00A3EDF07831E608E6A3EEF0A3EFF0900010
:10025E0004E0FFA3E0900121CFF0A3EFF01244B72A
:10026E00783476057834E664057018900010E070E6
:10027E0002A3E0700E78347604120368E490001046
:10028E00F0A3F07834E664047020900010E0700261
:10029E00A3E07016300D091211D65004783476068C
:1002AE00900010740DF0A374ACF07834E6FF601F6C
:1002BE006401601BEF64026016EF64036011EF646B
:1002CE0004600CEF64056007EF64066002E4F6302C
:1002DE008302D20A300A082083051203C6C20A30EE
:1002EE000F0A12030EE4FF123354C20F200C030246
:0F02FE0000A47F011233541203F7C20C0200A4B4
:01030D0022CD
:10030E00E4900012F09001D17402F0A37400F0A3F7
:10031E007412F0A37402F0A37401F0A374CDF07BF9
:10032E00027A00794C120ADEEF6401702C7B027A9D
:10033E0000794C12170750099001CDE0FF120AB355
:10034E0022900000E0FF14F0EF700E9001CDE0FF60
:09035E00120AB39000007401F0D2
:010367002273
:10036800300D5A7F027B027A007924120E46EF6024
:100378001F900024E0642A60179001EB7402F0A338
:100388007400F0A37424F07B057A0779521209E30C
:100398007F037B027A007924120E46EF601F9000DB
:1003A80024E0642A60179001EB7402F0A37400F053
:0E03B800A37424F07B057A0779521209E32220
:1003C600300D2D7F047B027A007924120E46EF60F1
:1003D6001F900024E0642A60179001EB7402F0A3DA
:1003E6007400F0A37424F07B057A07795A1209E3A6
:0103F60022E4
:1003F700C2111208F6402C78337663900001E0FFB3
:1004070004F0D3EF6480948740227F011216901284
:10041700167F7F0A7E0012135A121667E4900001B6
:10042700F080097833761FE4900001F0900002E431
:1004370075F001123EDCFED3E5F094E8EE9403403C
:10044700197F0112169012167F7F0A7E0012135A27
:0A045700121667E4900002F0A3F013
:010461002278
:10046200759852E4F587D299758DFD758BFD758966
:1004720021758850C284C2B4C2B3900008F0A3F0C0
:0B048200900004F0A3F0D2A9D2AF223A
:10048D00C2AF7B057A07796D1244B77B057A077980
:10049D006D1244B790011D7405F0A37407F0A37499
:1004AD00D7F0A37405F0A37407F0A374EBF07B05EC
:1004BD007A0779AC1244B77B057A07796D1244B788
:1004CD007B057A07796D1244B7D2B290011D740580
:1004DD00F0A37407F0A374D7F0A37405F0A3740709
:1004ED00F0A374EBF07B057A0879011244B720A2D2
:1004FD000D7B057A0879081244B7C2A0800B7B05E5
:10050D007A0879181244B7D2A0C2B220A10B7B058C
:10051D007A08792B1244B780097B057A08793A124B
:10052D0044B73082097B057A08794A1244B7208393
:10053D00097B057A0879551244B7D2B2A284B392D9
:10054D0084A2B4B392B4A2B3B392B3A2B7B392B729
:0B055D007F057E0012135A0204D62214
:03000B0002056883
:0B056800C0E0C083C082C0D075D00886
:10057300758CC0C2B2782D06E670021806D2A2208E
:10058300A227D208782F06E670021806782EE6FE18
:1005930008E6FFB41808EEB40104D20E8013D3EFBB
:1005A3009418EE9401400A8008C20EE4782EF608EF
:1005B300F67834E6FF60067833E6B46304C28480D9
:1005C300377830E664046005EF6404700E782DE636
:1005D30030E104C2848021D284801D300B0E782D3B
:1005E300E630E404C2848010D284800C782DE63097
:1005F300E704C2848002D284786CE6184660070858
:10060300E61670021816900010E07002A3E0600E68
:10061300900011E024FFF0900010E034FFF07829FF
:10062300E606D394644004E4F6D20F782A0806E67B
:1006330018860E70010614D39420EE94034008E448
:10064300782AF608F6D20CD2803080327831E6FE72
:1006530008E6FFC3900009E09FEE6480F89000086D
:10066300E0648098500EA3E02414F0900008E03476
:1006730000F08027900008EEF0A3EFF0801DD390E8
:100683000009E09400900008E064809480400CA38B
:10069300E024FFF0900008E034FFF0900004E0FE57
:1006A300A3E0FF900008E0FCA3E0FDD39FEE64808D
:0F06B300F8EC6480984008900004ECF0A3EDF0A0
:0906C200D0D0D082D083D0E03208
:10127D00415445300A0041542B434D47463D310AF8
:10128D000041542B435245473F0A004F4B0D0A0076
:10129D000D0A2B435245473A20302C310041542B37
:1012AD00435042533D224D45220A0030004D4152DC
:1012BD00494F0041542B434D47533D222573220A7C
:1012CD00002573001A0041542B434D47443D2562C0
:1012DD00640A0041542B434D474C3D22414C4C2256
:1012ED000A000D0A00222C22002B434D474C3A20B8
:1012FD0000220041542B435042523D2562640A00A6
:10130D003A002C2200222C00220D0A000D0A4F4B10
:10131D000D0A0041542B435042573D2562642C2247
:10132D002573222C202C222573220A00415444259A
:10133D00733B0A0036313639383630393400415472
:0D134D00443E4D45313B0A004154480A0022
:0408910041000A0018
:1008F6007F011216907B057A12797D1244B7121188
:100906009E4002C3227B057A1279831244B71211E4
:100916009E4002C3227B057A12798E1244B790015B
:10092600F27405F0A37412F0A37498F0A3E4F0A394
:100936007415F07B027A00794C12108B4002C322A8
:10094600784C7C007D027B057A12799D7E007F0CB7
:10095600124415EF6002C3227B057A1279AA12446B
:10096600B79001F27405F0A37412F0A37498F0A383
:10097600E4F0A37415F07B027A00794C12108B40D8
:1009860002C322201102D32290000AE0FF04F0D312
:10099600EF6480948A402D7F1E7E0012135A7F0CCE
:1009A6009001EB7405F0A37412F0A374BAF07B0502
:1009B6007A1279B8120FDAE490000AF07F1EFE125E
:1009C600135AC3227F0C7B027A00794C120E94EFE5
:0C09D6006002D3227F0F7E0012135AC370
:0109E20022F2
:1009E3009001E8EBF0A3EAF0A3E9F07F011216907F
:1009F3009001EBE0F9A3E0FAA3E090011DC9F0A395
:100A0300EAF0A3E9F07B057A1279C01244B7C298E1
:100A130090000E74FAF0A3E4F07B027A00790B12D3
:100A2300117A7B027A00790B12117A7B027A0079B0
:100A33000B12117A7B027A00790B12117A9001E87A
:100A4300E0F9A3E0FAA3E090011DC9F0A3EAF0A343
:100A5300E9F07B057A1279CE1244B77B057A1279D5
:100A6300D11244B7E490000CF090000E74FAF0A396
:100A7300E4F090000CE004F07B027A00790B121191
:100A83007A400990000CE0C3941140DD9001F274A8
:100A930005F0A37412F0A37498F0A3E4F0A37423F5
:100AA300F07B027A00794C12108B5002D322C322BE
:100AB3009001CEEFF07F011216907F1E7E0012137D
:100AC3005A7B057A1279D39001CEE090011DF01282
:0B0AD30044B77F1E7E0012135AD3228E
:100ADE009001CEEBF0A3EAF0A3E9F07F011216909D
:100AEE009001D4E0FBA3E0FAA3E0F9E4123E11C2B8
:100AFE0098D2997B057A1279E01244B79001F2747C
:100B0E0005F0A37412F0A374EFF0A3E4F0A3740342
:100B1E00F09001CEE0FBA3E0FAA3E0F912108B40B7
:100B2E00037F02229001F27405F0A37412F0A374F5
:100B3E00F2F0A3E4F0A37427F09001CEE0FBA3E063
:100B4E00FAA3E0F912108B40229001CEE0FBA3E055
:100B5E00FAA3E0F8AC02AD037B057A1279F67E00BB
:100B6E007F07124415EF60037F00229001CEE0FB59
:100B7E00A3E0FAA3E0F9900008123DE2FFB42C1AAC
:100B8E00900007123DE224D0FE9001D4E0FBA3E0DA
:100B9E00FAA3E0F9EE123E1180289001CEE0FBA3FD
:100BAE00E0FAA3E0F9900007123DE275F00AA42FD7
:100BBE0024F0FF9001D4E0FBA3E0FAA3E0F9EF12DA
:100BCE003E119001F27405F0A37412F0A374FEF0BE
:100BDE00A3E4F0A37427F09001CEE0FBA3E0FAA308
:100BEE00E0F912108B40037F02229001CEE0FBA3AE
:100BFE00E0FAA3E0F9124A8EEF24FFFFEE34FFFE77
:100C0E009001CEE0FBA3E0FAA3E0F98F828E83E49D
:100C1E00123E259001D1E0FBA3E0FAA3E0F8AC026E
:100C2E00AD039001CEE0FBA3E0FAA3E0F912426C13
:100C3E009001F27405F0A37412F0A374EFF0A3E424
:100C4E00F0A37427F09001CEE0FBA3E0FAA3E0F945
:100C5E0012108B40037F02229001F27405F0A374F0
:100C6E0012F0A374EFF0A3E4F0A374B3F09001CEEE
:100C7E00E0FBA3E0FAA3E0F912108B40129001CE34
:100C8E00E0FBA3E0FAA3E0F99000B3E4123E259056
:100C9E0001CEE0FBA3E0FAA3E0F9124A8EEF24FEA8
:100CAE00FFEE34FFFE9001CEE0FBA3E0FAA3E0F9E5
:100CBE008F828E83E4123E25C29890000E74D6F079
:100CCE00A374D8F07B027A00790B12117A40EB7F75
:020CDE000122F1
:100CE0009001E7EFF0A3EBF0A3EAF0A3E9F07F01B6
:100CF000121690E490000BF090000BE0C3940250A9
:100D00002A9001E7E0FFA3E0FBA3E0FAA3E0F912D9
:100D10000D2E90000CEFF060037F01227F0F7E000C
:0E0D200012135A90000BE004F080CD7F0022E9
:100D2E009001EBEFF0A3EBF0A3EAF0A3E9F07F0163
:100D3E001216907B057A1379009001EBE090011D5D
:100D4E00F01244B79001F27405F0A37413F0A3747B
:100D5E000DF0A3E4F0A37409F09001ECE0FBA3E026
:100D6E00FAA3E0F912108B40037F00229001F27477
:100D7E0005F0A37413F0A3740FF0A3E4F0A3740CA6
:100D8E00F09001ECE0FBA3E0FAA3E0F912108B4027
:100D9E00037F00229001F27405F0A37413F0A37484
:100DAE0012F0A3E4F0A3740DF09001ECE0FBA3E0CD
:100DBE00FAA3E0F912108B40037F00229001F27427
:100DCE0005F0A37413F0A3740FF0A3E4F0A3740D55
:100DDE00F09001ECE0FBA3E0FAA3E0F912108B40D7
:100DEE00037F00229001F27405F0A37413F0A37434
:100DFE0015F0A3E4F0A37414F09001ECE0FBA3E073
:100E0E00FAA3E0F912108B40037F00229001ECE070
:100E1E00FBA3E0FAA3E0F9124A8EEF24FDFFEE34B5
:100E2E00FFFE9001ECE0FBA3E0FAA3E0F98F828EC7
:080E3E0083E4123E257F01222E
:100E46009001E7EFF0A3EBF0A3EAF0A3E9F07F014E
:100E5600121690E490000BF090000BE0C394025041
:100E66002A9001E7E0FFA3E0FBA3E0FAA3E0F91272
:100E76000E9490000CEFF060037F01227F0F7E003E
:0E0E860012135A90000BE004F080CD7F002282
:100E94009001EBEFF0A3EBF0A3EAF0A3E9F07F01FC
:100EA4001216907B057A1379009001EBE090011DF6
:100EB400F01244B79001F27405F0A37413F0A37414
:100EC4000DF0A3E4F0A37409F09001ECE0FBA3E0BF
:100ED400FAA3E0F912108B40037F00229001F27410
:100EE40005F0A37413F0A3740FF0A3E4F0A3740C3F
:100EF400F09001ECE0FBA3E0FAA3E0F912108B40C0
:100F0400037F00229001F27405F0A37413F0A3741C
:100F140012F0A3E4F0A37413F09001ECE0FBA3E05F
:100F2400FAA3E0F912108B40037F00229001ECE059
:100F3400FBA3E0FAA3E0F9124A8EEF24FEFFEE349D
:100F4400FFFE9001ECE0FBA3E0FAA3E0F98F828EB0
:100F540083E4123E25E92419F9E43AFA9001F27483
:100F640005F0A37413F0A3740FF0A3E4F0A3740DBD
:100F7400F012108B40037F00229001ECE0FBA3E011
:100F8400FAA3E02419F9E43AFA9001F27405F0A303
:100F94007413F0A37415F0A3E4F0A37419F0121001
:100FA4008B40037F00229001ECE0FBA3E0FAA3E076
:100FB4002419F9E43AFA9001F27405F0A37413F0D9
:100FC400A37419F0A3E4F0A37419F012108B400376
:060FD4007F00227F0122D4
:100FDA009001E7EFF0A3EBF0A3EAF0A3E9F07F01B9
:100FEA00121690D2999001EBE0FBA3E0FAA3E0F984
:100FFA00124A8ED3EF940CEE6480948040129001D2
:10100A00EBE0FBA3E0FAA3E0F990000CE4123E2522
:10101A009001E8E0FBA3E0FAA3E0F9124A8ED3EFCD
:10102A009412EE6480948040129001E8E0FBA3E001
:10103A00FAA3E0F9900012E4123E259001E7E0904D
:10104A00011DF09001E8E0F9A3E0FAA3E090011E87
:10105A00C9F0A3EAF0A3E9F09001EBE0F9A3E0FA02
:10106A00A3E0900121C9F0A3EAF0A3E9F07B057A95
:10107A001379201244B712119E50037F01227F0078
:01108A002243
:0B108B009001EFEBF0A3EAF0A3E9F006
:10109600E49001F7F0A3F0A3F0A3F0C2989001F555
:1010A60074FFF5F0123EDC45F070030211789000F3
:1010B6000E74F6F0A37418F07B027A00790B121105
:1010C6007A4002C3229001F2E0FBA3E0FAA3E0F922
:1010D6009001F9E475F001123EDC85F082F5831289
:1010E6003DE2FF90000BE0FE6F705A9001EFE0FBCF
:1010F600A3E0FAA3E0F99001F7E475F001123EDCF3
:1011060085F082F583EE123E259001F2E0FBA3E026
:10111600FAA3E0F9124A8E9001F9E0FCA3E0FD6F14
:101126007002EE6C60030210A39001EFE0FBA3E0F7
:10113600FAA3E0F99001F7E0FEA3E0F5828E83E4DE
:10114600123E25D322E49001F9F0A3F090000BE0C3
:10115600FF9001EFE0FBA3E0FAA3E0F99001F7E4CA
:1011660075F001123EDC85F082F583EF123E250212
:0311760010A3C300
:011179002253
:10117A0020981290000E74FFF5F0123EDC45F060E4
:10118A0004D2B280EB209802C322AF99EF123E112B
:04119A00C298D32202
:10119E009001F27405F0A37413F0A37419F0A3E494
:1011AE00F0A37407F07B027A00794C12108B400288
:1011BE00C322784C7C007D027B057A13791912418B
:0811CE0082EF6002C322D3226C
:1011D6007F011216907F0A7E0012135AD2A720A70B
:1011E6001990011D7405F0A37413F0A37441F07BEC
:1011F600057A1379391244B780097B057A13794B3E
:101206001244B7C298786B760608764020980B7819
:101216006CE618466004D2B280F2209802C322C25D
:10122600989001F27405F0A37412F0A37498F0A3D9
:10123600E4F0A3743CF07B027A00794C12108B40E8
:1012460004C298C322C298786B7619087600209853
:101256000B786CE618466004D2B280F2121267D39D
:011266002265
:101267007F011216907B057A1379551244B77F1EBA
:061277007E0012135A2252
:10089500C10B02311F4001331F013000013400C17B
:1008A5008D4200221B58C10FC10CC10EC1902036CC
:1008B50035580000000000005858000000000000F6
:1008C5000000005800580000000000000000000073
:1008D500580058000000000000580000000000000B
:0C08E500580000000000004200101B58EA
:1016A4002A00534D533120564143494F00534D5363
:1016B4003220564143494F00534D53332056414342
:1016C400494F0031006D6F646F204F4E0035005359
:1016D400656E736962696C696461640035303131C7
:1016E400006770203030303000300074782070652E
:1016F400720032005265746172646F00416C6172F1
:031704006D610014
:10135A00E4786DF608F6D3786EE69F18E69E502775
:10136A00E4786FF608F6D37870E6944C18E6941D84
:10137A00500BD2B20806E67002180680E9786E06AB
:07138A00E67002180680CF97
:011391002239
:101392007F027B027A007924120E46EF70197F02D7
:1013A2009001EB7405F0A37416F0A374A6F07B050C
:1013B2007A1679A4120FDA7F037B027A007924125B
:1013C2000E46EF70197F039001EB7405F0A37416BB
:1013D200F0A374B1F07B057A1679A4120FDA7F04B8
:1013E2007B027A007924120E46EF70197F04900175
:1013F200EB7405F0A37416F0A374BCF07B057A16A7
:1014020079A4120FDA7F067B027A007924120E4643
:10141200EF701B7F069001EB7405F0A37416F0A326
:1014220074C9F07B057A1679C7120FDA802F900003
:1014320024E0FFB43004C20D8023EFB43104D20D96
:10144200801BD20D7F069001EB7405F0A37416F099
:10145200A374C9F07B057A1679C7120FDA7F077B6E
:10146200027A007924120E46EF70317F079001EB69
:101472007405F0A37416F0A374D3F07B057A167981
:10148200D1120FDA78247C007D027B057A1679D19D
:1014920012426C783176000876FA8068900024E077
:1014A200FFC3648094B0400CD3EF648094B95004BD
:1014B200A3E060317F079001EB7405F0A37416F08E
:1014C200A374D3F07B057A1679D1120FDA78247CD3
:1014D200007D027B057A1679D112426C7831760052
:1014E2000876FA801F900024E0FF3395E0FEEF2497
:1014F200D0FFEE34FFFE7C007D32123E497831A6E9
:101502000608A6077F057B027A007924120E46EFB1
:1015120070197F059001EB7405F0A37416F0A374A3
:10152200E5F07B057A1679E0120FDA7B027A007910
:1015320024124A8EC3EF9404EE6480948050197F83
:10154200059001EB7405F0A37416F0A374E5F07B2B
:10155200057A1679E0120FDA7F087B027A00792485
:10156200120E46EF701B7F089001EB7405F0A37416
:1015720016F0A374EFF07B057A1679ED120FDA807C
:1015820023900024E0FF1249CD40197F089001EB1F
:101592007405F0A37416F0A374EFF07B057A167944
:1015A200ED120FDA7F0E7B027A007924120E46EFDB
:1015B20070257F0E9001EB7405F0A37416F0A374EE
:1015C200F8F07B057A1679F6120FDA900022741B76
:1015D200F0A37458F08057900024E0FFC364809415
:1015E200B1400CD3EF648094B95004A3E060257F2E
:1015F2000E9001EB7405F0A37416F0A374F8F07B5F
:10160200057A1679F6120FDA900022741BF0A37491
:1016120058F0801A900024E024D0FF3395E0FE7C3D
:101622000D7D64123E49900022EEF0A3EFF07F0F91
:101632007B027A007924120E46EF701C7F0F900114
:10164200EB7405F0A37417F0A37400F07B057A160F
:1016520079C7120FDAD21022900024E0B43003C20C
:051662001022D210224D
:10166700C2B37F027E0012135AD2B37F1412135AE9
:08167700C2B37F0A12135A22CC
:10167F00D2B47F467E0012135AC2B47F1412135A8B
:01168F002238
:10169000EFB40106C2A3C2A4D2A5EF7006D2A3D2B2
:0416A000A4D2A52209
:102E060053544100737461005374610049676E69DD
:102E160074696F6E204F4E0049676E6974696F6EF4
:102E2600204F4646004D61696E204261747465729A
:102E360079204661756C74000A496E747075742049
:102E4600594553000A496E74707574204E4F000A36
:102E5600416374697665206D6F6465000A4E4F2084
:102E6600616374697665206D6F6465000A57415227
:102E76004E494E47000A5741524E494E472041544B
:102E8600454E440025730A504F5320257325732C55
:102E9600257325730A53706565642025730A486592
:102EA6006967742025730A5361742025630A446197
:102EB60074652F74696D652025732D257300475041
:102EC600504F5300246770706F730047505052453F
:102ED6002C002467707072652C002C00504F530034
:102EE600506F7300706F7300200020246770706F3E
:102EF6007300414C54410052454700416C746100D7
:102F060052656700616C7461007265670020246712
:102F160070616C7400434F4F522C00436F6F720008
:102F2600636F6F7200434F4F52442E20696E2064C8
:102F36006567726565730A7777772E66757475723D
:102F4600656461746173797374656D732E636F2E36
:102F5600756B0A4C61743A002D00257320252E36B8
:102F6600660A4C6F6E673A002573252E36660A0090
:102F760020446174652F54696D653A002F0020471F
:102F86004D542E0056455200434F463457520A566A
:102F9600657273696F6E20496E676C65730A42418C
:102FA600525241435544412053595354454D530AB7
:102FB6007777772E6176616E746573692E636F6DB0
:102FC6000A25730A25730A2573005645522053575E
:102FD60020636F6368653A20562E312E34005645BD
:102FE600522048573A206261303036004645434801
:102FF600413A2044696369656D62726520323030FA
:10300600330053454E0053656E0073656E0053657D
:103016006E736962696C69646164004D6F74696F8F
:103026006E2073656E736F722061646A7573746562
:10303600642025640052455400526574007265741C
:10304600005265746172646F0044656C6179206139
:10305600646A75737465642025640048454C5000A5
:1030660048454C500A504F534954494F4E0A535401
:10307600415455530A434F4F520A5245470A543159
:103086000A54320A54330A5431206E6E0A543220DE
:103096006E6E0A5433206E6E0A5431202A0A543258
:1030A600202A0A5433202A0A53310A53300A530A73
:1030B60052455345540A2374656C206D656E0A5259
:1030C6004554206E0A5245540A53544F500A4152F1
:1030D60052410A4C555A0A414C41524D410A4D4FF4
:1030E60044004F4E004F6E006F6E0031006D6F64EE
:1030F6006F204F4E004F4E20436F6E6669677572A4
:103106006174696F6E2E004F4646004F6666006F0B
:1031160066660030006D6F646F204F4646004F466E
:103126004620436F6E66696775726174696F6E2EAD
:1031360000414C4100416C6100616C6100416C6171
:10314600726D6100417578696C69617220696E748F
:1031560070757420746F207761726E696E67206473
:103166006576696365004C555A004C757A006C7536
:103176007A00417578696C6961727920696E74703C
:10318600757420746F20696E646F6F72206C696746
:103196006874005245530052657300726573002AC5
:1031A60000747620564143494F00534D5331205603
:1031B6004143494F00534D533220564143494F0036
:1031C600534D533320564143494F00350032005387
:1031D600797374656D20696E69742E0031393633E2
:1031E600004D6172696F20416C666F6E736F20537C
:1031F600756172657A2C20424152524143554441D1
:103206002053595354454D530063656E7472616C77
:1032160020256300554E444546494E4544005445D5
:103226004C4550484F4E45204E554D424552200084
:103236004D4F44004D6F64006D6F6400434F4E4622
:10324600494755524143494F4E0A53656E73696269
:10325600696C696461643A25640A526574617264D2
:103266006F3A25640A54313A000A54323A000A5435
:10327600333A000A54343A000A5052453A000A00DA
:103286006D6F646F3A204F4E0A006D6F646F3A207F
:103296004F46460A00456E74726164612061757816
:1032A600696C69617220636F6E6563746164612025
:1032B6006120616C61726D61206578746572696FF9
:1032C600722E00456E747261646120617578696C56
:1032D60069617220636F6E65637461646120612049
:1032E6006C757A20636F7274657369612E00533151
:1032F6000053544F500053746F700073746F700016
:103306004F7574707574204F4E0053300041525201
:103316000041727200617272004F7574707574208C
:103326004F464600434F4634472C002C302C002590
:1033360062642C00312C302C302C302C00302C3098
:0E3346002C302C302C0043312C0043302C0056
:0408F10041010000C1
:0B1707009001CEEBF0A3EAF0A3E9F0A4
:10171200123DC7B402109001CEE0FBA3E0FAA3E0B1
:10172200F97424123E1178067C2E7D059001CEE0DC
:10173200FBA3E0FAA3E0F97E007F03124415EF60F9
:1017420039780A7C2E7D059001CEE0FBA3E0FAA356
:10175200E0F97E007F03124415EF601E780E7C2EA6
:101762007D059001CEE0FBA3E0FAA3E0F97E007FC5
:1017720003124415EF600302190620A111784C7C74
:10178200007D027B057A2E791212426C800F784C12
:101792007C007D027B057A2E791E12426C20830F1B
:1017A200784C7C007D027B057A2E792B12426C20CC
:1017B200A2199001EB7405F0A3742EF0A3743EF00D
:1017C2007B027A00794C1249F480179001EB740580
:1017D200F0A3742EF0A3744AF07B027A00794C12C3
:1017E20049F4300D199001EB7405F0A3742EF0A3A7
:1017F2007455F07B027A00794C1249F480179001FB
:10180200EB7405F0A3742EF0A37462F07B027A00ED
:10181200794C1249F47830E6640460067834E6B410
:1018220004199001EB7405F0A3742EF0A37472F006
:101832007B027A00794C1249F480247830E66406FF
:1018420060067834E6B406179001EB7405F0A374D1
:101852002EF0A3747BF07B027A00794C1249F4904B
:10186200011D7405F0A3742EF0A3748AF0A3740210
:10187200F0A37400F0A3744CF0A37401F0A37400FD
:10188200F0A3743DF0A37401F0A37400F0A37447B5
:10189200F0A37401F0A37400F0A37449F0A37401DF
:1018A200F0A37400F0A37454F0A37401F0A37400C5
:1018B200F0A3745DF0A37401F0A37400F0A3745656
:1018C200F0783CE6A3F0A37401F0A37400F0A374D3
:1018D20064F0A37401F0A37400F0A37435F07B02EA
:1018E2007A00794C1244B1E49000ECF09001EB7470
:1018F20002F0A37400F0A37412F07B027A00794C18
:101902001209E3229001CEE0FBA3E0FAA3E0240156
:10191200F9E43AFA78C47C2E7D057E007F051244F4
:1019220015EF700A7B057A2E79CA122B7622900166
:10193200CEE0FBA3E0FAA3E02401F9E43AFA78D17D
:101942007C2E7D057E007F06124415EF6003021A8D
:10195200EE9001CEE0FBA3E0FAA3E0F990000712BB
:101962003DE264436003021A839001D1F0A374093B
:10197200F09001D1E0FEA3E0FFC3941CEE648094DA
:101982008050269001CEE0FBA3E0FAA3E0F98F821B
:101992008E83123DE2642C60109001D2E004F0705C
:1019A200069001D1E004F080C8D3EF941AEE64806F
:1019B20094804002D3229001CEE0FBA3E0FAA3E0A0
:1019C200F9A3E0FEA3E0F5828E83E4123E259001A6
:1019D200D2E004F070069001D1E004F09001D1E071
:1019E200FFA3E0A3CFF0A3EFF09001D1E0FEA3E0CC
:1019F200FFC39428EE648094804003021A8390010E
:101A0200CEE0FBA3E0FAA3E0F98F828E83123DE2DF
:101A1200FF642C6003EF70589001D1E0FEA3E0FF59
:101A2200C39427EE6480948050468F828E83E412A2
:101A32003E257F05E92409F9E43AFAC003C002C051
:101A4200019001CEE0FBA3E0FAA3E0F99001D3E01C
:101A5200FCA3E0FDE92DF9EA3CFA9001EBEBF0A3DF
:101A6200EAF0A3E9F0D001D002D003120FDA80111C
:101A72009001D2E004F070069001D1E004F0021966
:101A8200EB78747C007D027B057A2E79D812426C49
:101A92007F057B027A00797B120E469001EB74057A
:101AA200F0A3742EF0A374E0F07B027A0079741232
:101AB20049F47F057B027A007924120CE09001EB55
:101AC2007402F0A37400F0A37424F07B027A00790C
:101AD200741249F49001EB7402F0A37400F0A37441
:101AE20012F07B027A0079741209E32278E27C2EEA
:101AF2007D059001CEE0FBA3E0FAA3E0F97E007F32
:101B020003124415EF603678E67C2E7D059001CEF7
:101B1200E0FBA3E0FAA3E0F97E007F03124415EF95
:101B2200601B78EA7C2E7D059001CEE0FBA3E0FAF3
:101B3200A3E0F97E007F03124415EF707478EC7C09
:101B4200007D027B027A00791212426C7F057B02D1
:101B52007A007912120E467F057B027A00792412EE
:101B62000CE09001EB7405F0A3742EF0A374EEF078
:101B72007B027A0079241249F49001EB7402F0A3FB
:101B82007400F0A374ECF07B027A0079241249F419
:101B92009001EB7405F0A3742EF0A374F0F07B02B5
:101BA2007A0079241249F47B027A007924122B7686
:101BB2002278F87C2E7D059001CEE0FBA3E0FAA30B
:101BC200E0F97E007F04124415EF7003021C5B787B
:101BD200FD7C2E7D059001CEE0FBA3E0FAA3E0F9A7
:101BE2007E007F03124415EF606F78017C2F7D0524
:101BF2009001CEE0FBA3E0FAA3E0F97E007F04129D
:101C02004415EF605478067C2F7D059001CEE0FBF1
:101C1200A3E0FAA3E0F97E007F03124415EF6039D6
:101C2200780A7C2F7D059001CEE0FBA3E0FAA3E0C9
:101C3200F97E007F04124415EF601E780F7C2F7D21
:101C4200059001CEE0FBA3E0FAA3E0F97E007F035A
:101C5200124415EF6003021CDD78EC7C007D027BF0
:101C6200027A00791212426C7F057B027A007912A5
:101C7200120E467F057B027A007924120CE0900155
:101C8200EB7405F0A3742EF0A374EEF07B027A00DD
:101C920079241249F49001EB7402F0A37400F0A3CA
:101CA20074ECF07B027A0079241249F49001EB740F
:101CB20005F0A3742FF0A37413F07B027A00792449
:101CC2001249F49001EB7402F0A37400F0A37412B1
:101CD200F07B027A0079241209E322781B7C2F7DA3
:101CE200059001CEE0FBA3E0FAA3E0F97E007F04B9
:101CF200124415EF603978217C2F7D059001CEE0EA
:101D0200FBA3E0FAA3E0F97E007F04124415EF6022
:101D12001E78267C2F7D059001CEE0FBA3E0FAA37E
:101D2200E0F97E007F04124415EF6003021F497838
:101D32004C7C007D027B057A2F792B12426C78470E
:101D4200E6B453179001EB7405F0A3742FF0A3745B
:101D52005EF07B027A00794C1249F478247C007D93
:101D6200027B017A00793D12426CE4900026F07BFE
:101D7200027A0079241248979001D5123F1D7824E7
:101D82007C007D027B017A00793F12426C7B027AF1
:101D92000079241248979001D9123F1D9001D9125F
:101DA2003F11123F497F427E707D007C001238DF76
:101DB2009001D9123F1D9001D9123F11123F499053
:101DC20001D5123F111237CC9001DD123F1D900157
:101DD2001D7405F0A3742FF0A37460F0A37402F0D5
:101DE200A37400F0A3744CF09001DD123F11900136
:101DF20023123F1D7B027A00794C1244B17854E6DB
:101E0200B457179001EB7405F0A3742FF0A3745E1E
:101E1200F07B027A00794C1249F478247C007D022E
:101E22007B017A00794912426CE4900027F07B0230
:101E32007A0079241248979001D5123F1D78247CAC
:101E4200007D027B017A00794C12426C7B027A009F
:101E520079241248979001D9123F1D9001D9123F5F
:101E620011123F497F427E707D007C001238DF9064
:101E720001D9123F1D9001D9123F11123F49900121
:101E8200D5123F111237CC9001DD123F1D90011D7A
:101E92007405F0A3742FF0A3746EF0A37402F0A380
:101EA2007400F0A3744CF09001DD123F11900123F5
:101EB200123F1D7B027A00794C1244B19001EB74FF
:101EC20005F0A3742FF0A37476F07B027A00794CAC
:101ED2001249F49001EB7401F0A37400F0A374644E
:101EE200F07B027A00794C1249F49001EB7405F010
:101EF200A3742FF0A37482F07B027A00794C12490A
:101F0200F49001EB7401F0A37400F0A37435F07B3C
:101F1200027A00794C1249F49001EB7405F0A37433
:101F22002FF0A37484F07B027A00794C1249F4906A
:101F320001EB7402F0A37400F0A37412F07B027A36
:101F420000794C1209E322788A7C2F7D059001CE1C
:101F5200E0FBA3E0FAA3E0F97E007F03124415EF51
:101F6200705390011D7405F0A3742FF0A3748EF0CA
:101F7200A37405F0A3742FF0A374D0F0A37405F03A
:101F8200A3742FF0A374E4F0A37405F0A3742FF0EC
:101F9200A374F2F07B027A00794C1244B19001EB07
:101FA2007402F0A37400F0A37412F07B027A007939
:101FB2004C1209E32278087C307D059001CEE0FBCB
:101FC200A3E0FAA3E0F97E007F03124415EF603923
:101FD200780C7C307D059001CEE0FBA3E0FAA3E013
:101FE200F97E007F03124415EF601E78107C307D6D
:101FF200059001CEE0FBA3E0FAA3E0F97E007F03A7
:10200200124415EF60030221139001CEE0FBA3E01E
:10201200FAA3E0F9900003123DE2FF70030220D020
:10202200EF64207053900004123DE2FFC364809479
:10203200B050030220D0D3EF648094B94003022051
:10204200D0EF3395E0FEEF24D0FFEE34FFFE7C00AC
:102052007D32123E497831A60608A6077F07E92499
:1020620004F9E43AFA9001EB7405F0A37430F0A39A
:102072007414F0120FDA80569001CEE0FBA3E0FA5E
:10208200A3E0F9900003123DE2FFC3648094B040E4
:102092003DD3EF648094B95035EF3395E0FEEF24E1
:1020A200D0FFEE34FFFE7C007D32123E497831A62D
:1020B2000608A6077F07E92403F9E43AFA9001EB40
:1020C2007405F0A37430F0A37414F0120FDA9001C7
:1020D2001D7405F0A37430F0A37421F07831E6FE8C
:1020E20008E6FF7C007D32123EB2A3EEF0A3EFF0D1
:1020F2007B027A00794C1244B19001EB7402F0A396
:102102007400F0A37412F07B027A00794C1209E396
:1021120022783B7C307D059001CEE0FBA3E0FAA360
:10212200E0F97E007F03124415EF6039783F7C307E
:102132007D059001CEE0FBA3E0FAA3E0F97E007FEB
:1021420003124415EF601E78437C307D059001CE6A
:10215200E0FBA3E0FAA3E0F97E007F03124415EF4F
:10216200600302220D9001CEE0FBA3E0FAA3E0F9A6
:10217200900003123DE2FF604CEF64207047900034
:1021820004123DE2FFC3648094B14039D3EF64800E
:1021920094B95031EF24D0FF3395E0FE7C0D7D637E
:1021A200123E49900022EEF0A3EFF07F0EE92404E4
:1021B200F9E43AFA9001EB7405F0A37430F0A374D9
:1021C20047F0120FDA90011D7405F0A37430F0A3EA
:1021D200744FF0900022E0FEA3E0FF7C0D7D6312BD
:1021E2003E5D900120EEF0A3EFF07B027A00794C85
:1021F2001244B19001EB7402F0A37400F0A37412C4
:10220200F07B027A00794C1209E32278617C307DFE
:10221200059001CEE0FBA3E0FAA3E0F97E007F0483
:10222200124415EF70189001EB7402F0A37400F0E1
:10223200A37412F07B057A3079661209E32278E8FA
:102242007C307D059001CEE0FBA3E0FAA3E0F97EAD
:10225200007F02124415EF603678EB7C307D0590EA
:1022620001CEE0FBA3E0FAA3E0F97E007F02124474
:1022720015EF601B78EE7C307D059001CEE0FBA36C
:10228200E0FAA3E0F97E007F02124415EF70337F7B
:10229200069001EB7405F0A37430F0A374F3F07BA5
:0522A200057A3079F11E
:1022A700120FDAD20D9001EB7402F0A37400F0A3C1
:1022B7007412F07B057A3079FB1209E322780D7CE2
:1022C700317D059001CEE0FBA3E0FAA3E0F97E00A3
:1022D7007F03124415EF603678117C317D0590013C
:1022E700CEE0FBA3E0FAA3E0F97E007F02124415DB
:1022F700EF601B78157C317D059001CEE0FBA3E0F4
:10230700FAA3E0F97E007F02124415EF70337F06CF
:102317009001EB7405F0A37431F0A3741BF07B05F7
:102327007A317919120FDAC20D9001EB7402F0A31A
:102337007400F0A37412F07B057A3179241209E353
:102347002278377C317D059001CEE0FBA3E0FAA32C
:10235700E0F97E007F03124415EF6036783B7C314D
:102367007D059001CEE0FBA3E0FAA3E0F97E007FB4
:1023770003124415EF601B783F7C317D059001CE39
:10238700E0FBA3E0FAA3E0F97E007F03124415EF18
:1023970070337F0F9001EB7405F0A37431F0A374D1
:1023A70043F07B057A3079F1120FDAD2109001EB06
:1023B7007402F0A37400F0A37412F07B057A3179EC
:1023C7004A1209E322786C7C317D059001CEE0FB4F
:1023D700A3E0FAA3E0F97E007F03124415EF60360D
:1023E70078707C317D059001CEE0FBA3E0FAA3E095
:1023F700F97E007F03124415EF601B78747C317DF2
:10240700059001CEE0FBA3E0FAA3E0F97E007F038D
:10241700124415EF70337F0F9001EB7405F0A3742E
:1024270031F0A37470F07B057A317919120FDAC293
:10243700109001EB7402F0A37400F0A37412F07B08
:10244700057A3179781209E32278997C317D0590F4
:1024570001CEE0FBA3E0FAA3E0F97E007F0312447C
:1024670015EF6039789D7C317D059001CEE0FBA3A7
:10247700E0FAA3E0F97E007F03124415EF601E78AF
:10248700A17C317D059001CEE0FBA3E0FAA3E0F942
:102497007E007F03124415EF60030225997F0190A8
:1024A70001EB7405F0A37431F0A374A7F07B057AF0
:1024B7003179A5120FDA7F029001EB7405F0A3744E
:1024C70031F0A374B0F07B057A3179A5120FDA7F6A
:1024D700039001EB7405F0A37431F0A374BBF07B98
:1024E700057A3179A5120FDA7F049001EB7405F0B4
:1024F700A37431F0A374C6F07B057A3179A5120F66
:10250700DA7F069001EB7405F0A37430F0A374F33F
:10251700F07B057A3079F1120FDAD20D7F0790013F
:10252700EB7405F0A37430F0A37414F07B057A31D3
:1025370079D1120FDA783176000876FA7F0E90019A
:10254700EB7405F0A37430F0A37447F07B057A3180
:1025570079D3120FDA900022741BF0A37458F07F1E
:102567000F9001EB7405F0A37431F0A37443F07B73
:10257700057A3079F1120FDAD2109001EB7402F07C
:10258700A37400F0A37412F07B057A3179D5120990
:10259700E32278E27C317D059001CEE0FBA3E0FAEF
:1025A700A3E0F97E007F04124415EF70189001EB49
:1025B7007402F0A37400F0A37412F07B057A3179EA
:1025C700E71209E3229001CEE0FBA3E0FAA3E0F9CA
:1025D700123DC7FF64546008EF645460030226FB92
:1025E700900001123DE2FFFD3395E0FCED24D0FDA4
:1025F700EC34FFFC9001D1F0A3EDF064014C601BBB
:102607009001D1E0FCA3E0FD64024C600EED640391
:102617004C6008ED64044C6002D322900002123D26
:10262700E26420704290011D7405F0A37432F0A398
:10263700740FF0A3EFF07B027A0079241244B19073
:1026470001D2E0FF9001CEE0FBA3E0FAA3E0240370
:10265700F9E43AFA9001EB7402F0A37400F0A37462
:1026670024F0120FDA80159001CEE0FBA3E0FAA365
:10267700E0F9900002123DE26002D3229001D2E01D
:10268700FF7B027A007924120E46EF604090002407
:10269700E0B42A11784C7C007D027B057A32791AE6
:1026A70012426C8037784C7C007D027B057A327948
:1026B7002412426C9001EB7402F0A37400F0A3742F
:1026C70024F07B027A00794C1249F4800F784C7C15
:1026D700007D027B057A32791A12426C9001EB7405
:1026E70002F0A37400F0A37412F07B027A00794C15
:1026F7001209E32278367C327D059001CEE0FBA3F8
:10270700E0FAA3E0F97E007F02124415EF60397802
:102717003A7C327D059001CEE0FBA3E0FAA3E0F915
:102727007E007F03124415EF601E783E7C327D05E4
:102737009001CEE0FBA3E0FAA3E0F97E007F03124D
:102747004415EF600302292C90011D7405F0A37452
:1027570032F0A37442F07831E6FE08E6FF7C007D94
:1027670032123EB2A3EEF0A3EFF0900022E0FEA3F8
:10277700E0FF7C0D7D63123E5D900122EEF0A3EF3A
:10278700F07B027A00794C1244B17F017B027A0018
:102797007924120E469001EB7402F0A37400F0A3A3
:1027A7007424F07B027A00794C1249F49001EB749F
:1027B70005F0A37432F0A3746FF07B027A00794CB2
:1027C7001249F47F027B027A007924120E469001A7
:1027D700EB7402F0A37400F0A37424F07B027A0078
:1027E700794C1249F49001EB7405F0A37432F0A30D
:1027F7007474F07B027A00794C1249F47F037B02F0
:102807007A007924120E469001EB7402F0A374004B
:10281700F0A37424F07B027A00794C1249F49001FA
:10282700EB7405F0A37432F0A37479F07B027A009D
:10283700794C1249F47F047B027A007924120E4600
:102847009001EB7402F0A37400F0A37424F07B02F0
:102857007A00794C1249F49001EB7405F0A37432B5
:10286700F0A3747EF07B027A00794C1249F47F055D
:102877007B027A007924120E469001EB7402F0A3D2
:102887007400F0A37424F07B027A00794C1249F4A7
:102897009001EB7405F0A37432F0A37484F07B020B
:1028A7007A00794C1249F4300D199001EB7405F058
:1028B700A37432F0A37486F07B027A00794C124934
:1028C700F480179001EB7405F0A37432F0A37490B1
:1028D700F07B027A00794C1249F43010199001EB21
:1028E7007405F0A37432F0A3749BF07B027A00792D
:1028F7004C1249F480179001EB7405F0A37432F081
:10290700A374C9F07B027A00794C1249F49001EB69
:102917007402F0A37400F0A37412F07B027A0079BA
:102927004C1209E3229001CEE0FBA3E0FAA3E0F901
:10293700123DC764236003022A099001007402F064
:10294700E49001D1F0A3F09001D1E0FEA3E0FFC332
:10295700940FEE6480948050269001CEE0FBA3E0B4
:10296700FAA3E0F98F828E83123DE2642060109013
:1029770001D2E004F070069001D1E004F080C8D3E2
:10298700EF940FEE648094804002D3229001CEE052
:10299700FBA3E0FAA3E0F9A3E0FEA3E0F5828E83B0
:1029A700E4123E259001D2E004F070069001D1E0D8
:1029B70004F078017C017D027B027A0079121242D1
:1029C7006C9001CEE0FBA3E0FAA3E0F9A3E0FEA33D
:1029D700E0FFE92FF9EA3EFAC003C002C001900107
:1029E700CEE0A3E0FAA3E02401F9E43AFA9001EB80
:1029F700EBF0A3EAF0A3E9F0D001D002D00312096B
:102A0700E32278F47C327D059001CEE0FBA3E0FA67
:102A1700A3E0F97E007F02124415EF605178F77C3E
:102A2700327D059001CEE0FBA3E0FAA3E0F97E003A
:102A37007F03124415EF603678FC7C327D059001E8
:102A4700CEE0FBA3E0FAA3E0F97E007F0312441572
:102A5700EF601B78017C337D059001CEE0FBA3E09E
:102A6700FAA3E0F97E007F03124415EF701AC2A0A3
:102A77009001EB7402F0A37400F0A37412F07B05CD
:102A87007A3379061209E32278107C337D059001A9
:102A9700CEE0FBA3E0FAA3E0F97E007F0212441523
:102AA700EF605178137C337D059001CEE0FBA3E006
:102AB700FAA3E0F97E007F03124415EF603678171A
:102AC7007C337D059001CEE0FBA3E0FAA3E0F97E1D
:102AD700007F03124415EF601B781B7C337D059044
:102AE70001CEE0FBA3E0FAA3E0F97E007F031244E6
:102AF70015EF701AD2A09001EB7402F0A37400F0E6
:102B0700A37412F07B057A33791F1209E32290012F
:102B1700CEE0FBA3E0FAA3E0F9123DC764537020AF
:102B2700900001123DE270189001EB7402F0A3745B
:102B370000F0A37412F07B057A33791F1209E322A0
:102B4700900100E0602714F0A3E06458601D900135
:102B5700EB7402F0A37401F0A37401F09001CEE0CE
:0E2B6700FBA3E0FAA3E0F91209E322D322D384
:012B7500223D
:102B7600784C7C007D0212426C9001EB7405F0A348
:102B8600742EF0A374E0F07B027A00794C1249F4BB
:102B96009001EB7405F0A37433F0A3742AF07B0262
:102BA6007A00794C1249F4783CE6900024F0E4A3CC
:102BB600F09001EB7402F0A37400F0A37424F07B90
:102BC600027A00794C1249F49001EB7405F0A37473
:102BD6002EF0A374E0F07B027A00794C1249F4904F
:102BE60001EB7401F0A37400F0A37464F07B027A25
:102BF60000794C1249F49001EB7405F0A3742EF0A1
:102C0600A374E0F07B027A00794C1249F49001EB50
:102C16007401F0A37400F0A37435F07B027A007996
:102C26004C1249F49001EB7405F0A3742EF0A374D2
:102C3600E0F07B027A00794C1249F49001EB7401C2
:102C4600F0A37400F0A3743DF07B027A00794C1275
:102C560049F49001EB7405F0A3742EF0A374E0F030
:102C66007B027A00794C1249F49001EB7401F0A3CF
:102C76007400F0A37447F07B027A00794C1249F491
:102C86009001EB7405F0A3742EF0A374E0F07B02C0
:102C96007A00794C1249F49001EB7401F0A37400A8
:102CA600F0A37449F07B027A00794C1249F4900142
:102CB600EB7405F0A3742EF0A374E0F07B027A00A7
:102CC600794C1249F49001EB7401F0A37400F0A35F
:102CD6007454F07B027A00794C1249F49001EB743B
:102CE60005F0A3742EF0A374E0F07B027A00794C11
:102CF6001249F49001EB7401F0A37400F0A374562A
:102D0600F07B027A00794C1249F49001EB7405F0DD
:102D1600A3742EF0A374E0F07B027A00794C12497A
:102D2600F49001EB7401F0A37400F0A3745DF07BE2
:102D3600027A00794C1249F49001EB7405F0A37401
:102D460033F0A37431F07B027A00794C1249F49087
:102D5600011D7405F0A37433F0A37435F07833E6DF
:102D6600A3F07B027A0079241244B19001EB74023D
:102D7600F0A37400F0A37424F07B027A00794C125D
:102D860049F420A2199001EB7405F0A37433F0A363
:102D9600743AF07B027A00794C1249F4801790015C
:102DA600EB7405F0A37433F0A37443F07B027A004E
:102DB600794C1249F420A1199001EB7405F0A37423
:102DC60033F0A3744CF07B027A00794C1249F480FC
:102DD600179001EB7405F0A37433F0A37450F07BE5
:102DE600027A00794C1249F49001EB7402F0A37454
:0F2DF60000F0A37412F07B027A00794C1209E30B
:012E050022AA
:10370C002C0024475047474100244750524D43005A
:03371C000D0A0093
:053354009001CDEFF037
:10335900E4FF12169090004C7410F0A3747AF0E414
:10336900A3F0A374FFF0E4A3F0A3F0A304F0E4A393
:10337900F0A37410F0A37403F0A3F09001CDE0B4AE
:103389000108E4900052F0A304F0E4FFC3EF648065
:10339900948A501F209904D2B280F9C299EFFD3363
:1033A90095E0FC744C2DF582EC3400F583E0F59939
:1033B9000F80D990004F7401F0E4FFC3EF6480944B
:1033C9008A501F209904D2B280F9C299EFFD339532
:1033D900E0FC744C2DF582EC3400F583E0F5990F8F
:1033E90080D99001F27405F0A37437F0A3740CF03E
:1033F900A3E4F0A37407F07B027A00794C12108BD6
:10340900400302370B9001CDE064017054784C7C85
:10341900007D027B057A37790EFE7F06124415EF8F
:10342900600302370B9001CDE07036784C7C007D4B
:10343900027B057A377915FE7F06124415EF600382
:1034490002370B9001F27405F0A37437F0A3741CD2
:10345900F0A3E4F0A37482F07B027A00794C121095
:103469008B9001F27405F0A37437F0A3740CF0A3E8
:10347900E4F0A3740BF07B027A00794C12108B40B4
:103489000302370BE4900052F09001F27405F0A3A7
:103499007437F0A3740CF0A3E4F0A3740BF07B026F
:1034A9007A00792412108B400302370B9001CDE08A
:1034B9007043900024E064416007783C7630C20B89
:1034C90022D20B78357C007D017B027A00794C127F
:1034D900426C9001F27405F0A37437F0A3740CF0F8
:1034E900A3E4F0A3740AF07B027A00792412108B0A
:1034F900400302370B90002C7430F0E4A3F09001E4
:10350900CDE0700F783D7C007D017B027A00792443
:1035190012426C9001F27405F0A37437F0A3740C95
:10352900F0A3E4F0A37402F0FB7A00794C12108B3B
:10353900400302370BE490004DF09001CDE0700F8D
:1035490078477C007D017B027A00794C12426C90AD
:1035590001F27405F0A37437F0A3740CF0A3E4F03E
:10356900A3740BF07B027A00794C12108B40030292
:10357900370B9000557430F0E4A3F09001CDE07062
:103589000F78497C007D017B027A00794C12426CEC
:103599009001F27405F0A37437F0A3740CF0A3E45E
:1035A900F0A37402F0FB7A00794C12108B400302ED
:1035B900370BE490004DF09001CDE0700F78547C0A
:1035C900007D017B027A00794C12426C9001F27401
:1035D90005F0A37437F0A3740CF0A3E4F0A3740608
:1035E900F07B027A00794C12108B400302370B9062
:1035F90001CDE07032900050E0B42C04E4F0801466
:10360900900051E0B42C04E4F08009900052E0B439
:103619002C02E4F0785D7C007D017B027A00794C14
:103629007E007F06123D959001CDE06401700D90FA
:10363900004CE064316003C20B22D20B9001F2749A
:1036490005F0A37437F0A3740CF0A3E4F0A3740C91
:10365900F07B027A00794C12108B400302370B90F1
:1036690001CDE0B4010790004DE0783CF69001F2FD
:103679007405F0A37437F0A3740CF0A3E4F0A374F9
:1036890007F07B027A00794C12108B400302370B4A
:103699009001CDE07013900052F078647C007D01B8
:1036A9007B027A00794C12426C9001F27405F0A306
:1036B9007437F0A3740CF0A3E4F0A3740CF07B024C
:1036C9007A00794C12108B50399001CDE0B4011475
:1036D900E4900051F078567C007D017B027A0079F4
:1036E9004C12426C9001F27405F0A37437F0A37484
:1036F9001CF0A3E4F0A3741EF07B027A00794C124B
:02370900108B23
:01370B00229B
:0300000002371FA5
:0F371F00758E0C787FE4F6D8FD758170023769DE
:1037AE00DA0CD902800BD906300701B35005023965
:1037BE00D092070239BCD9F680F9D2068002C20631
:1037CE00123A01300606C86002B207C89206DAD075
:1037DE00D9E4B8000A123A48A20692070239A56047
:1037EE00FBB51600400F123A48A20692F7A20792B6
:1037FE0006A2F79207C398F40424E740DF2419AD1C
:10380E0012AC11AB107A00C394084008CDCCCBFAA1
:10381E00E4CD80F424086010F9C3ED13FDEC13FC25
:10382E00EB13FBEA13FAD9F1A206300701B34030CD
:10383E008A1AE5132BF51BE5143CF51CE5153DF531
:10384E001D501A13F51DE51C13F51CE51B13F51B76
:10385E00E51A13F51A0516E5167002051702395BFF
:10386E00E4C39AF51AE5139BF51BE5149CF51CE5CC
:10387E00159DF51D500DB207C3781A7F04E496F618
:10388E0008DFFA7A047019E516C39408F51650028B
:10389E001517E4C51AC51BC51CF51DDAE80239FC5F
:1038AE0020E7BAE516700215171516781AC37F04AD
:0838BE00E633F608DFFA80E8AA
:1038C6000239E7B8FFFA0239D0D9FB0239BCDAF679
:1038D600B800F00239FC123EF2123A01300701B389
:1038E60092077007D9E3B800E280DBDAE1B800029C
:1038F60080E1D9D5C8C39850021517247F50020518
:1039060017F516781D76007A1A7B80C3E513951095
:10391600E5149511E51595124016C3E5139510F5B6
:1039260013E5149511F514E5159512F515E64BF604
:10393600DA0302395BEB03FB30E703187600C3E5D5
:103946001333F513E51433F514E51533F51540CAAD
:0539560030E7DD80B642
:10444900E524241DF582E43401F583E00524229056
:10445900011A30190390011DE475F001123F290278
:104469003DC72012E97F2ED2128018EF540F2490F5
:10447900D43440D4FF30160BEF24BFB41A005003D4
:104489002461FFE525600215250528E52870020548
:1044990027201A5930190E90011AE475F001123FBC
:1044A90029EF023E110249A67403D2198003E4C21E
:1044B90019F52490011A123F40E4F525F527F5284E
:1044C900E52560077F2012448C80F5F526C213C2CA
:1044D90012C214C215C217C218C21A124458FF7068
:1044E9000D3019057F001244A0AF28AE2722B4254C
:1044F90050C2D5C216124458FF24D0B40A00501E27
:1045090075F00A20D50DC525A42525F5257002D2FB
:104519001580E0D212C526A42526F52680D524CFFC
:10452900B41A00EF5004C2E5D216024776D21380BE
:10453900C0D21280BCD21480B8D2D580B6124449F8
:10454900FF12448C0244C9D21880A6D21780A21245
:104559004449FB124449FA124449F94A4B70067915
:10456900687A487B05201433E525602FAF26BF0004
:10457900011F7E008E82758300123DE260050EEEFA
:104589006F70F1C2D5EBC0E0EAC0E0E9C0E0EE121D
:1045990047D2D0E0F9D0E0FAD0E0FB123DC7FF6086
:1045A900A3EBC0E0EAC0E0E9C0E012448CD0E0240B
:1045B90001F9D0E03400FAD0E0FBE52660DDD5262C
:1045C900DA8081D214809E1247B660F7E526123A46
:1045D9005EA926600BE526124855EF7003D526F52E
:1045E900EA30E702F404C3995079EAF42526043045
:1045F900E701E404F526800D1247B660C6EA0526F0
:104609002526123A5EEA900149F030E701E42526B1
:1046190004D52604201701141247D2E4C0E0124839
:1046290055900149E0601320E70714F012447480A3
:104639002204F0D0E014C0E07F00124474E5266043
:104649000712446B1526800B30170312446BD0E018
:104659000244C9D0E00480C41247B6609EE526042E
:10466900123A5E900149EAF0E5260420170260013A
:104679000424041247D274FF04C0E01248551244BE
:1046890074E526201702600312446BD0E0B526E8D2
:104699007F4512447E900149E07F2B30E7047F2D4E
:1046A900F404C0E012448CD0E075F00A84C0F01222
:1046B9004475D0E01244750244C97910800C790818
:0E46C9008008D2D5790A8006790AC2D5C218B7
:1046D700E4FAFDFEFF124449FC7B08201313124441
:1046E70049FD7B1030120A124449FE124449FF7BF0
:1046F70020EC3382D592D55013C3E43012069FFFC6
:10470700E49EFEE42013039DFDE49CFCE4CBF8C289
:1047170013EC700CCFCECDCCE824F8F870F38017EB
:10472700C3EF33FFEE33FEED33FDEC33FCEB33FB2E
:10473700994002FB0FD8E9EB301305F8D0E0C448E5
:10474700B213C0E00AEC4D4E4F78207B0070C2EAEE
:10475700C0E01247D4D0F0D0E0201304C4C0E0C4B6
:10476700B213C0F0124475D0F0D5F0EB0244C91271
:104777003FD545585346C358453A4C45364246C738
:104787004F46CB4446CB4945464346D1554601465D
:1047970046614545D047487A50453E2D45422E450E
:1047A700502B45542345402048752A0000454A10A0
:1047B7001203752606124449FC124449FD12444966
:1047C700FE124449FF900142023A9B790AA2D52082
:1047D7001514301709B910020404B9080104A2D549
:1047E7002018025001042014619214B5250050329C
:1047F700C0E07F203015177F30A21472187217504F
:104807000D124829C214C218C2177F30800F301703
:1048170003E9C0E012448C301703D0E0F9D0E0B5CB
:1048270025CE3017177F30B9100C12448C7F5830C3
:1048370016077F788003B9080312448C3014057F6C
:104847002D02448C7F2B2018F822921480D47F00ED
:10485700B40700500B2442F582E43401F583E0FFEE
:1048670022286E756C6C29002D4958504443D21A82
:104877000244FA124449B406004001E490486F9399
:1048870012447D743A12447DD2157525040246C33D
:10489700D2119001E7123F401248B7C0E0FF12491A
:1048A700DED0E040F31248DC4001221248B780F521
:0D48B700E475F0019001E7123F29023DC7B2
:10395B00E51D20E713781AC37F04E633F608DFFA78
:10396B00E516700215171516E51A33781B7F03E65B
:10397B003400F6500E08DFF7751D800516E516703E
:10398B00020517E51720E7547027E516604E046013
:10399B0020851D15851C14851B135320F0AC13AD0E
:1039AB0014A207E51613FFE51592E7FEA816023FD2
:1039BB0082E4F515F514F513F5177516FF5320F082
:1039CB0043200580D874FFF515F514F51375170012
:1039DB00F516D2075320F043200980C15320F04342
:1039EB002003E4F515F514F513F517F516C207804A
:0639FB00AC5320F080EC4B
:103A010079017A018515F0E516A2F733920775174A
:103A110000F5166002D2F785F015A816B8FF08095F
:103A2100E515C2E76001098C108D118EF0A2F7EF48
:103A31003304700A0AC2F705F00AD5F0011A1460BE
:073A410002D2F785F012220A
:103A4800C88816C515C512C515C514C511C514C530
:063A580013C510C5132286
:103A5E00F920E73624F950037907E4F42402FBE554
:103A6E0082158270021583DBF6E024FB501BE960A1
:103A7E0014E4F0E582158270021583E004F0B40AB6
:0D3A8E0008E4F0D9EE7401F00A22C2D5223E
:103A9B00EE33EF3392D5FB602AB4FF33EEC2E77BF4
:103AAB000560067A3A79C0E4227A3A79C920D504BE
:103ABB007A3A79C4224E614E002B494E46002D496D
:103ACB004E4600E47A08F0A3DAFC7B00740722125E
:103ADB003F49EBFF75F010A4FAABF08FF0744DA4D7
:103AEB002BFBACF050010CC3EA94F0FAEB943AFBCD
:103AFB00EC9426FCE515C2E7FF75F056A4F42414EC
:103B0B00C5F0F434C58FF0A42AE5F03BE43CF0207B
:103B1B00E70B123C93123FAC1238DF800BF404120C
:103B2B003C93123FAC123BB5EE33EF33C394824060
:103B3B0009704EEED2E794A05047123F82E0FAEEA6
:103B4B00A2E7D2E7FEEF332482FBE4C3CC33CCCD28
:103B5B0033CDCE33CE33DBF3F0A37B078CF0740A7B
:103B6B00A4FCAFF08DF0740AA42FFDAFF050010F41
:103B7B008EF0740AA42FFEE435F0F0A3DBDE74079D
:103B8B0022E004F020E708123C931238DF80AEF4F9
:093B9B0004123C93123BB580A416
:1048C400C212C213C214C215F9E4F524FCFDFEFFA2
:1048D400123F49E9C082C083D083D0821011E12005
:1048E400140DB42D05D214D3E473B42B0280F82430
:1048F400D050429409503C240A301513F8D0F07477
:104904000AA42872E7404FC5F0704BC0F080D8D29B
:1049140013FCE4123C2F123EF2123F49E4FCFD7EEC
:10492400207F41123BB51237CC123F493012B815E3
:104934002480B4240A20152FB4FE07201229D21291
:1049440080A524EB600424E0701DA2149212D215F9
:10495400C214C0E080915320F043200974FFFCFD91
:10496400FEFF123F828038E430150BD0E030140291
:10497400F404A21292143013DD252420D2D8A2E725
:1049840092155002F404B4260050CB123C93201527
:1049940005123BB580031238DF301403123C14C3F4
:0249A400E473BA
:103BA400DA03B800030239D0D9028002D9F7023906
:103BB400BC123A01300701B392077004D9E78005BB
:103BC400DADEB800030239FCD9E2C3947E50021550
:103BD400172516F516500205177818760008B81E32
:103BE400FA78107918E608FAE8FC78138AF0E608FF
:103BF400A427F709E5F037F7500989F00907E760CA
:103C0400FBA9F0B816E61919ECF8B813D802395B19
:103C1400EE33EF33600C047005EE547F7004EFB2A2
:033C2400E7FF2295
:103C27007920800C7910800479087D007E007F0060
:103C37003392D530D503123F03EC33400FEF33FFF8
:103C4700EE33FEED33FDEC33FCD9EE22EECCF5F08E
:0C3C5700747E29A2D513FF92F7AEF02274
:103C63000000803F000020410000C84200007A4469
:103C730000401C460050C347002474498096184BEB
:103C830020BCBE4CCA1B0E5A1CC25367AEC59D74E2
:103C9300FB6006540760142323123CB4EB543860D2
:103CA3002A123F49123CAE123BB522EB543803248F
:103CB3001CAA83A982903C63FF93FCEFA393FDEFBF
:0C3CC300A393FEEFA393FF8A8389822263
:10372E0002000EE493A3F8E493A34003F68001F2A3
:10373E0008DFF48029E493A3F85407240CC8C3339C
:10374E00C4540F4420C8834004F456800146F6DF6B
:10375E00E4800B0102040810204080900860E47E93
:10376E00019360BCA3FF543F30E509541FFEE49360
:10377E00A360010ECF54C025E060A840B8E493A327
:10378E00FAE493A3F8E493A3C8C582C8CAC583CA52
:10379E00F0A3C8C582C8CAC583CADFE9DEE780BE0A
:0108F5000002
:103CCF00E709F608DFFA8046E709F208DFFA803ED7
:103CDF0088828C83E709F0A3DFFA8076E309F60880
:103CEF00DFFA806EE309F208DFFA806688828C8340
:103CFF00E309F0A3DFFA805A89828A83E0A3F608EA
:103D0F00DFFA804E89828A83E0A3F208DFFA8042CD
:103D1F0080AE80B480BA80C480CA80D080DA80E45C
:103D2F0080378023805389828A83ECFAE493A3C877
:103D3F00C582C8CCC583CCF0A3C8C582C8CCC58307
:103D4F00CCDFE9DEE7800D89828A83E493A3F6084E
:103D5F00DFF9ECFAA9F0EDFB2289828A83ECFAE015
:103D6F00A3C8C582C8CCC583CCF0A3C8C582C8CCB4
:103D7F00C583CCDFEADEE880DB89828A83E493A304
:103D8F00F208DFF980CC88F0ED14B4040050C3249E
:103D9F001E83F582EB14B4050050B72415832582DA
:103DAF00F582EF4E60ACEF60010EE582903D1F7320
:083DBF00000402000C060012D2
:103DC700BB020689828A83E0224003BB0402E72202
:0B3DD700400789828A83E49322E322E4
:103DE200BB020CE58229F582E5833AF583E02240A5
:103DF20003BB0406E92582F8E622400DE58229F597
:0F3E020082E5833AF583E49322E92582F8E222F0
:103E1100BB020689828A83F0224003BB0402F72297
:043E21005001F32237
:103E2500F8BB020DE58229F582E5833AF583E8F0D2
:103E3500224003BB0406E92582C8F6225005E92580
:043E450082C8F2221B
:103E4900EFF88DF0A4FFEDC5F0CEA42EFEEC88F0BE
:043E5900A42EFE2273
:103E5D00BC000BBE0029EF8DF084FFADF022E4CC49
:103E6D00F875F008EF2FFFEE33FEEC33FCEE9DEC12
:103E7D00984005FCEE9DFE0FD5F0E9E4CEFD22ED58
:103E8D00F8F5F0EE8420D21CFEADF075F008EF2FA2
:103E9D00FFED33FD4007985006D5F0F222C398FD93
:053EAD000FD5F0EA2230
:103EB200C2D5EC30E709B2D5E4C39DFDE49CFCEE2B
:103EC20030E709B2D5E4C39FFFE49EFE123E5D30A7
:0A3ED200D507C3E49FFFE49EFE2223
:103EDC00A3F8E0C5F025F0F0E58215827002158399
:063EEC00E0C838F0E822F6
:103EF200CFC516CFCEC515CECDC514CDCCC513CCEE
:013F0200229C
:0E3F0300C3E49FFFE49EFEE49DFDE49CFC22CF
:0C3F1100E0FCA3E0FDA3E0FEA3E0FF2223
:0C3F1D00ECF0A3EDF0A3EEF0A3EFF02217
:103F2900F8E0FBA3A3E0F925F0F0E5821582700221
:073F39001583E0FA38F022C5
:093F4000EBF0A3EAF0A3E9F02282
:103F4900E51E051E602223232446C082C083F58214
:103F5900E43401F583E513F0A3E514F0A3E515F0C6
:103F6900A3E516F0D083D0828F168E158D148C138D
:103F790022AF16AE15AD14AC13E51E14602223232F
:103F8900C082C0832446F582E43401F583E0F51349
:103F9900A3E0F514A3E0F515A3E0F516D083D082CC
:033FA900151E22C0
:103FAC00E51E602423232446C082C083F582E434BA
:103FBC0001F583E513F0A3E514F0A3E515F0A3E5F3
:093FCC0016F0D083D082051E22FC
:103FD500D083D082F8E4937012740193700DA3A37B
:103FE50093F8740193F5828883E47374029368608F
:063FF500EFA3A3A380DF8F
:1049A600EFB40A07740D1249B1740A309811A89928
:1049B600B8130CC2983098FDA899C298B811F63071
:0749C60099FDC299F5992249
:1049CD00EFC394304009EFC3943A5003D38001C331
:0149DD0022B7
:1049DE00EFC394094006EFC3940E4005EF642070B8
:0649EE0003D38001C32287
:1049F4009001E8EBF0A3EAF0A3E9F0E49001EEF013
:104A0400A3F09001E8E0FBA3E0FAA3E0F99001EE43
:104A1400E0FEA3E0F5828E83123DE260109001EF88
:104A2400E004F070069001EEE004F080D59001EB14
:104A3400E0FBA3E475F001123EDCA9F0FA123DC7D5
:104A4400FF9001E8E0FBA3E0FAA3E0F99001EEE4B3
:104A540075F001123EDC85F082F583EF123E25905D
:104A640001EBE0FBA3E0FAA3E0F9123DC770BE90AE
:104A740001E8E0FBA3E0FAA3E0F99001EEE0FEA375
:0A4A8400E0F5828E83E4123E252245
:103FFB0087F009E608B5F06E606C80F487F009E293
:10400B0008B5F062606080F488828C8387F009E0E9
:10401B00A3B5F052605080F488828C8387F009E45A
:10402B0093A3B5F041603F80F3E3F5F009E608B5E3
:10403B00F034603280F3E3F5F009E208B5F0276065
:10404B002580F388828C83E3F5F009E0A3B5F016A5
:10405B00601480F388828C83E3F5F009E493A3B5B5
:10406B00F004600280F20241258085808F80998068
:10407B00A780B680C180CC80DB8043805280738068
:10408B0073805D8027806F89828A83ECFAE493F5D5
:10409B00F0A3C8C582C8CCC583CCE493A3C8C582A2
:1040AB00C8CCC583CCB5F072607080E189828A83FD
:1040BB00E493F5F0A3E208B5F060605E80F28982CC
:1040CB008A83E0F5F0A3E608B5F04F604D80F389E5
:1040DB00828A83E0F5F0A3E208B5F03E603C80F302
:1040EB0089828A83E493F5F0A3E608B5F02C602A65
:1040FB0080F2803C805D89828A83ECFAE493F5F050
:10410B00A3C8C582C8CCC583CCE0A3C8C582C8CC24
:10411B00C583CCB5F004600280E27F00F845F06007
:10412B000EE863F0806480D395F01F40027F01227C
:10413B0089828A83ECFAE0F5F0A3C8C582C8CCC5A6
:10414B0083CCE0A3C8C582C8CCC583CCB5F0CB600B
:10415B00C980E389828A83ECFAE0F5F0A3C8C582B3
:10416B00C8CCC583CCE493A3C8C582C8CCC583CCCB
:10417B00B5F0A760A580E288F0ED14B40500509A65
:10418B00241283F582EB14B40500508E240B832587
:0F419B00829040747300040200060010080018A0
:1041AA00E709F60870FA8046E709F20870FA803ED5
:1041BA0088828C83E709F0A370FA8074E309F60811
:1041CA0070FA806CE309F20870FA806488828C8342
:1041DA00E309F0A370FA805889828A83E0A3F6087B
:1041EA0070FA804C89828A83E0A3F20870FA8040D0
:1041FA0080AE80B480BA80C480CA80D080DA80E47D
:10420A0080358021804F89828A83ECFAE493A3C89F
:10421A00C582C8CCC583CCF0A3C8C582C8CCC58327
:10422A00CC70E9800D89828A83E493A3F60870F939
:10423A00ECFAA9F0EDFB2289828A83ECFAE0A3C8A2
:10424A00C582C8CCC583CCF0A3C8C582C8CCC583F7
:10425A00CC70EA80DD89828A83E493A3F20870F93C
:10426A0080CE88F0ED14B4040050C5241283F58280
:10427A00EB14B4050050B924098325829041FA73DE
:08428A00000402000C06001202
:104A8E009001FBEBF0A3EAF0A3E9F0E4FFFE900146
:104A9E00FBE0FBA3E475F001123EDCA9F0FA123D37
:0B4AAE00C760070FEF70010E80E422CC
:1042920087F009E608B5F06CDFF6806887F009E27E
:1042A20008B5F060DFF6805C88828C8387F009E0D5
:1042B200A3B5F050DFF6804C88828C8387F009E446
:1042C20093A3B5F03FDFF5803BE3F5F009E608B5CF
:1042D200F032DFF5802EE3F5F009E208B5F025DFD4
:1042E200F5802188828C83E3F5F009E0A3B5F01410
:1042F200DFF5801088828C83E3F5F009E493A3B59F
:10430200F002DFF40243BE80878091809B80A98007
:10431200B880C380CE80DD804580548075807580F2
:104322005F8029807189828A83ECFAE493F5F0A395
:10433200C8C582C8CCC583CCE493A3C8C582C8CC07
:10434200C583CCB5F076DFE3DEE1807089828A83B3
:10435200E493F5F0A3E208B5F062DFF4805E8982AF
:104362008A83E0F5F0A3E608B5F051DFF5804D89C8
:10437200828A83E0F5F0A3E208B5F040DFF5803CE5
:1043820089828A83E493F5F0A3E608B5F02EDFF480
:10439200802A8034805789828A83ECFAE493F5F08C
:1043A200A3C8C582C8CCC583CCE0A3C8C582C8CC8B
:1043B200C583CCB5F006DFE4DEE280007FFFB5F016
:1043C200020F2240027F012289828A83ECFAE0F501
:1043D200F0A3C8C582C8CCC583CCE0A3C8C582C837
:1043E200CCC583CCB5F0D5DFE5DEE380CF89828A08
:1043F20083ECFAE0F5F0A3C8C582C8CCC583CCE44F
:1044020093A3C8C582C8CCC583CCB5F0AFDFE4DEC8
:10441200E280A988F0ED14B4050050A0241E83F5B3
:1044220082EB14B4050050942417832582F582EFA1
:104432004E6089EF60010EE5829043097300040229
:07444200000600100800183D
:00000001FF
